:10009A003F065B4F666D7D077F6F777C395E7971AE
:0B00B600EF1FAC0670011E4C70F6221C
:10000300E4F50975900FAF90EF640F60767FE87E9B
:10001300031200B6AF90EF640F606875900FAF9056
:10002300EF24F5601024FE6011146013240770128E
:10003300E4F508800D7508018008750802800375D2
:1000430008037590F0AF90EF2450600C24E0600C2F
:1000530024F0600C2470800E7404800674088002FF
:10006300740C2508F508C3E5099432748094805014
:1000730012AF90EF64F0600B7FE87E031200B605C9
:030083000980E30E
:010086002257
:10008700C2A2D2A3D2A4120003E50890009A93F566
:030097008080F373
:030000000200AA51
:0C00AA00787FE4F6D8FD7581090200871C
:00000001FF
