:100B5A00101E010203FB040506FD070809FA00D16D
:020B6A000DFB81
:0C0B4300C2A5C2A78D80D2A77FE87E0368
:0B0B4F00EF1FAC0670011E4C70F62278
:100B0900120B4F7F38120B1A7FF47E01120B4F7FA5
:010B190038A3
:0D0B1A00AD07120B4BC2A6120B43C2A7225F
:0D0B2700E47B0AFAF9F8120AC5EB2430FF4E
:0F0B3400AD07120B4BD2A6120B43C2A7C2A622CB
:100A75007FDC7E05120B097FF47E01120B097F08CE
:100A8500120B1A7F01120B1A7F06120B1A7F0C121A
:100A95000B1AE4F50BF50CF509F508F510F50FF54E
:100AA5000EF50DF514F513F512F511F518F517F505
:100AB50016F515F51CF51BF51AF519F50AC2B72239
:100003007590FEE59064FE70030200DB120B4BE576
:100013009064FE6028E59054F0F50B2490601B2457
:10002300C0601224E0600924F07012E4F50C800D26
:10003300750C018008750C028003750C03E590B400
:10004300FEFBE50C600A64016006E50C6402707156
:10005300E50970377F0AFEFDFCAB10AA0FA90EA8B5
:100063000D1208A8C004A905AA06AB07741E250C27
:10007300F8E6FFE4FCFDFED000EB2FF510EE3AF5B9
:100083000FED39F50EEC38F50D8036E47F0AFEFDF1
:10009300FCAB14AA13A912A8111208A8C004A9053D
:1000A300AA06AB07741E250CF8E6FFE4FCFDFED0A0
:1000B30000EB2FF514EE3AF513ED39F512EC38F5A4
:1000C30011E50CB40306750901750801741E250CAE
:1000D300F8E62430FF120B347590FDE59064FD7053
:1000E300030201B4120B4BE59064FD6028E59054C4
:1000F300F0F50B2490601B24C0601224E0600924F7
:10010300F07012750C04800D750C058008750C06D3
:100113008003750C07E590B4FDFBE50C6404600CEB
:10012300E50C64056006E50C64067073E509703739
:100133007F0AFEFDFCAB10AA0FA90EA80D1208A89A
:10014300C004A905AA06AB07741E250CF8E6FFE454
:10015300FCFDFED000EB2FF510EE3AF50FED39F56F
:100163000EEC38F50D803EE47F0AFEFDFCAB14AACD
:1001730013A912A8111208A8C004A905AA06AB075F
:10018300741E250CF8E6FFE4FCFDFED000EB2FF512
:1001930014EE3AF513ED39F512EC38F511800675C6
:1001A3000901750802741E250CF8E62430FF120BB2
:1001B300347590FBE59064FB700302028D120B4BC8
:1001C300E59064FB6028E59054F0F50B2490601BE8
:1001D30024C0601224E0600924F07012750C0880BA
:1001E3000D750C098008750C0A8003750C0BE590DE
:1001F300B4FBFBE50C6408600CE50C64096006E5E0
:100203000C640A7073E50970377F0AFEFDFCAB10BE
:10021300AA0FA90EA80D1208A8C004A905AA06AB27
:1002230007741E250CF8E6FFE4FCFDFED000EB2F5F
:10023300F510EE3AF50FED39F50EEC38F50D803E7D
:10024300E47F0AFEFDFCAB14AA13A912A81112083D
:10025300A8C004A905AA06AB07741E250CF8E6FF7F
:10026300E4FCFDFED000EB2FF514EE3AF513ED3967
:10027300F512EC38F5118006750901750803741E33
:10028300250CF8E62430FF120B347590F7E59064E3
:10029300F77003020642120B4BE59064F76028E502
:1002A3009054F0F50B2490601B24C0601224E0608E
:1002B3000924F07012750C0C800D750C0D800875F7
:1002C3000C0E8003750C0FE590B4F7FBE50C24F3DB
:1002D30070030203601470030203731470030203B8
:1002E3006824036003020642E50970377F0AFEFDB6
:1002F300FCAB10AA0FA90EA80D1208A8C004A905EB
:10030300AA06AB07741E250CF8E6FFE4FCFDFED03D
:1003130000EB2FF510EE3AF50FED39F50EEC38F54D
:100323000D8036E47F0AFEFDFCAB14AA13A912A8C4
:10033300111208A8C004A905AA06AB07741E250C50
:10034300F8E6FFE4FCFDFED000EB2FF514EE3AF5E2
:1003530013ED39F512EC38F5117F3080107F01125F
:100363000B1A02062D7509017508047F2F020B3441
:10037300E508640170687FCF120B1A7F04120B1A11
:10038300E5102514F518E50F3513F517E50E3512AD
:10039300F516E50D3511F515AF18AE17AD16AC15FD
:1003A300EC4D4E4F601E120B27AF18AE17AD16ACB7
:1003B30015E47B0AFAF9F8120AC58F188E178D1601
:1003C3008C1580D47F3D120B34E4F510F50FF50E38
:1003D300F50DF514F513F512F511F509F508E50812
:1003E3006402600302049E7FCF120B1A7F04120B78
:1003F3001AAF14AE13AD12AC11AB10AA0FA90EA80D
:100403000DD3120905401AE5109514F518E50F955B
:1004130013F517E50E9512F516E50D9511F51580F3
:1004230019C3E5149510F518E513950FF517E512A3
:10043300950EF516E511950DF515AF18AE17AD161A
:10044300AC15EC4D4E4F601E120B27AF18AE17AD17
:1004530016AC15E47B0AFAF9F8120AC58F188E1741
:100463008D168C1580D4AF14AE13AD12AC11AB1036
:10047300AA0FA90EA80DC312090550057F2D120B53
:10048300347F3D120B34E4F510F50FF50EF50DF541
:1004930014F513F512F511F509F508E50864037071
:1004A300657FCF120B1A7F04120B1AAF14AE13AD74
:1004B30012AC11AB10AA0FA90EA80D1208A8802226
:1004C300AF18AE17AD16AC15EC4D4E4F601E120BA8
:1004D30027AF18AE17AD16AC15E47B0AFAF9F8127C
:1004E3000AC58F188E178D168C1580D47F3D120B7D
:1004F30034E4F510F50FF50EF50DF514F513F512BB
:10050300F511F509F508E508640370657FCF120B53
:100513001A7F04120B1AAF14AE13AD12AC11AB1049
:10052300AA0FA90EA80D1208A88022AF18AE17AD06
:1005330016AC15EC4D4E4F601E120B27AF18AE17BD
:10054300AD16AC15E47B0AFAF9F8120AC58F188EBA
:10055300178D168C1580D47F3D120B34E4F510F5FE
:100563000FF50EF50DF514F513F512F511F509F563
:1005730008E50864046003020642F51D7FCF120BF1
:100583001A7F04120B1AAF10AE0FAD0EAC0DEC12A6
:1005930007E9C004C005C006C007AF14AE13AD120F
:1005A300AC11EC1207E9A804A905AA06AB07D0070A
:1005B300D006D005D00412074CE4FBFA797A7844CC
:1005C3001206431208278F188E178D168C15AF1835
:1005D300AE17AD16AC15EC4D4E4F602D051D120B2D
:1005E30027AF18AE17AD16AC15E47B0AFAF9F8126B
:1005F3000AC58F188E178D168C15E51DB403CF7F92
:100603002E120B34E4F51D80C5AB14AA13A912A84E
:1006130011AF10AE0FAD0EAC0D120AC5EC33500581
:100623007F30120B347F3D120B34E4F510F50FF5D8
:100633000EF50DF514F513F512F511F509F508226C
:080B6D00120A7512000380FB5F
:10064300EC4D6011E8497017ED33EC3304600DE4B1
:10065300FCFFFEFD22E933E8330470F8020893122D
:10066300085E58046009E4CC24815006285009022E
:10067300089D28400302089AC0E0EB4A7044B98001
:1006830006D0E0FB020889EF4E701CBD8008EBFF2B
:10069300EAFEE9FD80EBE98DF0A4FEE5F002072C0C
:1006A300E9CDF9EAFEEBFFEF89F0A4FCE5F0CE8992
:1006B300F0A42EFFE435F0CD89F0A42DFEE435F04F
:1006C3008067EF4E7005BD80D780C3EF8BF0A4AC7D
:1006D300F0EE8BF0A42CFCE435F0F8EF8AF0A42CB8
:1006E300E5F038FCE433CB8DF0A42CFCE5F03BF8CB
:1006F300EE8AF0A42CFCE5F038F8E433CF89F0A4BB
:100703002CFCE5F038CF3400CE89F0A42FFFE5F0C0
:100713003EFEE433C98DF0A42EFEE5F039CD8AF018
:10072300A42FFFE5F03EFEE43DFD33D0E0FB500790
:100733000BBB000F02089DEC2CFCEF33FFEE33FEE6
:06074300ED33FD02087514
:1007490002089DEC5D046005E859047003020893F2
:1007590012085E580460F6EC4860F2EC7004FDFE85
:10076900FF22C860DB2481C85009C3986002500683
:1007790002089A9850CAF582E9294B4A7005AB825A
:1007890002088975F0007C1A7880C3EF9BEE9AED18
:1007990099400DC3EF9BFFEE9AFEED99FDE842F0FB
:1007A900DC23ACF0D0E0FFD0E0FED0E0FDAB82204E
:1007B900E7101BEB60BAEC2CFCEF33FFEE33FEEDD8
:1007C90033FD020875E803F830E705C0F075F0005D
:1007D900EF2FFFEE33FEED33FD40B830E7C280AABC
:1007E90075F020800E75F010800575F0087D007E8B
:1007F900007F003392D530D5031208F7EC3340104F
:10080900EF33FFEE33FEED33FDEC33FCD5F0ED2293
:0E081900E5F0247EA2D513CC92E7CDCEFF22CF
:10082700EDD2E7CD33EC3392D524814006E4FFFEC9
:10083700FDFC22FCE4CFCECDCC24E0501174FF8028
:10084700EDC3CC13CCCD13CDCE13CECF13CF0470C5
:07085700F030D5DE0208F7C6
:10085E00E9D2E7C933E833F892D5EDD2E7CD33ECE0
:07086E0033FC5002B2D52259
:10087500EC30E7100FBF000C0EBE00080DBD0004E4
:100885000BEB6014A2D5EB13FCED92E7FD2274FF90
:10089500FCFDFEFF22E480F8A2D574FF13FC7D80E9
:0308A500E480EFFD
:030000000209E909
:0C09E900787FE4F6D8FD75812D020A30FD
:1008A800E88FF0A4CC8BF0A42CFCE98EF0A42CFCEF
:1008B8008AF0EDA42CFCEA8EF0A4CDA8F08BF0A46D
:1008C8002DCC3825F0FDE98FF0A42CCD35F0FCEBCC
:1008D8008EF0A4FEA9F0EB8FF0A4CFC5F02ECD3991
:0F08E800FEE43CFCEAA42DCE35F0FDE43CFC22FE
:100AC500C2D5E830E70FB2D5E4C39BFBE49AFAE45C
:100AD50099F9E498F8EC30E717B2D5120AFB120938
:100AE50057E4C39BFBE49AFAE499F9E498F8800388
:100AF50012095730D50DE4C39FFFE49EFEE49DFD2A
:040B0500E49CFC224E
:0E08F700C3E49FFFE49EFEE49DFDE49CFC2212
:10090500EB9FF5F0EA9E42F0E99D42F0EC6480C869
:0609150064809845F02209
:1009F500020B6DE493A3F8E493A34003F68001F2A0
:100A050008DFF48029E493A3F85407240CC8C33302
:100A1500C4540F4420C8834004F456800146F6DFD1
:100A2500E4800B0102040810204080900B5AE47EFC
:100A3500019360BCA3FF543F30E509541FFEE493C6
:100A4500A360010ECF54C025E060A840B8E493A38D
:100A5500FAE493A3F8E493A3C8C582C8CAC583CAB8
:100A6500F0A3C8C582C8CAC583CADFE9DEE780BE70
:010B6C000088
:10091B0075F008758200EF2FFFEE33FECD33CDCC93
:10092B0033CCC58233C5829BED9AEC99E582984016
:10093B000CF582EE9BFEED9AFDEC99FC0FD5F0D6F3
:10094B00E4CEFBE4CDFAE4CCF9A88222B800C1B91D
:10095B000059BA002DEC8BF084CFCECDFCE5F0CB5B
:10096B00F97818EF2FFFEE33FEED33FDEC33FCEB94
:10097B0033FB10D703994004EB99FB0FD8E5E4F94F
:10098B00FA227818EF2FFFEE33FEED33FDEC33FC3C
:10099B00C933C910D7059BE99A4007EC9BFCE99A30
:1009AB00F90FD8E0E4C9FAE4CCFB2275F010EF2F75
:1009BB00FFEE33FEED33FDCC33CCC833C810D70775
:1009CB009BEC9AE899400AED9BFDEC9AFCE899F8B0
:0E09DB000FD5F0DAE4CDFBE4CCFAE4C8F92243
:00000001FF
