:0B00A700EF1FAC0670011E4C70F6222B
:0E007F00758901758CFF758A06D2AFD2A92251
:0E008D00E4F509F50AF50CF50DF508F50B2262
:1000640012007F12008D20B1FD7FE87E031200A7ED
:0B00740020B1F3D28CE50B70ED80FA98
:03000B0002000EE2
:10000E00C0E0C0D0050DE50D7002050C758CFF75B6
:10001E008A06E50DB4D01CE50CB40717750C0075F7
:10002E000D00E50870056308FF8008750800750B64
:10003E0001C28CE508700E0509E509B401137509B6
:10004E0000B295800C050AE50AB40205750A00B2E5
:06005E0095D0D0D0E03285
:0300000002009B60
:0C009B00787FE4F6D8FD75810D0200644A
:00000001FF
