:10009A003F065B4F666D7D077F6F777C395E7971AE
:0100AA000055
:0B00B700EF1FAC0670011E4C70F6221B
:10000300E4F50975900FE590640F60777FE87E0350
:100013001200B7E590640F606A75900FAF90EF24FC
:10002300F5601024FE601114601324077012E4F5C8
:1000330008800D75080180087508028003750803A0
:100043007590F0AF90EF2450601124E0601124F01C
:10005300601124707013850808800E740480067480
:10006300088002740C2508F508C3E509648094B27E
:100073005011E59064F0600B7FE87E031200B70532
:030083000980E60B
:010086002257
:10008700C2A2C2A3C2A4120003E50890009A93F586
:030097008080F373
:030000000200AB50
:0C00AB00787FE4F6D8FD7581090200871B
:00000001FF
