:0A0222003F065B4F666D7D077F6F9E
:0301FF00010800F4
:0B020C00EF1FAC0670011E4C70F622C4
:100149001201DBE513C4540F90022293F509E5135C
:10015900540F93F50A750B40E512C4540F93F50C2F
:10016900E512540F93F50D750E40E511C4540F9324
:0A017900F50FE511540F93F5102265
:10008F00E4FDEDB40800504D90009EF8282873024F
:10009F0000B60200BA0200C20200C60200CE020081
:1000AF00D20200DA0200DEC2A28002D2A2C2A3C232
:1000BF00A48022C2A28002D2A2D2A3C2A48016C25E
:1000CF00A28002D2A2C2A3D2A4800AC2A28002D26C
:1000DF00A2D2A3D2A4C374079D2409F8E6F5807FAA
:0F00EF00647E0012020CE4F5800DED640870933E
:0100FE0022DF
:0B0217001201B812014912008F80F89C
:0E01F10081838587898B8D80828486888A8CA5
:09020200071100001207050616A1
:10018300C2B500C2B600D2B500E4FEEF1392B4EFDD
:10019300C313FFD2B600C2B6000EBE08EEE4FEEDF6
:1001A3001392B4EDC313FDD2B600C2B6000EBE085F
:0401B300EEC2B500E3
:0101B7002225
:1000FF00C2B500C2B600D2B500E4FDEF1392B4EF63
:10010F00C313FFD2B600C2B6000DBD08EE00E4FD6A
:10011F00A2B4E433FFC43333335480FCEEC3134C27
:10012F00FED2B600C2B6000DBD08E5C2B500D2B60C
:09013F0000C2B400D2B400AF0606
:010148002294
:1001B800E4FD7F8E120183E4FCEC9001F893FF7458
:1001C800112CF8E6FD1201830CBC07ED7D807F8EB3
:0301D8000201839E
:1001DB00E4FBEB9001F193FF1200FF74112BF8A6D7
:0501EB00070BBB07ED4E
:0101F00022EC
:03000000020003F8
:0C000300787FE4F6D8FD75811702004AF2
:10000F00020217E493A3F8E493A34003F68001F2EE
:10001F0008DFF48029E493A3F85407240CC8C333F2
:10002F00C4540F4420C8834004F456800146F6DFC1
:10003F00E4800B01020408102040809001FFE47E51
:10004F00019360BCA3FF543F30E509541FFEE493B6
:10005F00A360010ECF54C025E060A840B8E493A37D
:10006F00FAE493A3F8E493A3C8C582C8CAC583CAA8
:10007F00F0A3C8C582C8CAC583CADFE9DEE780BE60
:01020B0000F2
:00000001FF
