:100202002052656420436F6E74726F6C20204952D5
:0A0212002D434F44453A2D2D48209E
:1000FD001202401201CA7F8012021CE4F510E510B5
:10010D0090020293FF1202280510E510C3940D40D2
:10011D00ED7FC012021CE4F510E51090020F93FF65
:10012D001202280510E510C3940D40EDE50BC454E3
:10013D000FF50DE50B540FF50EE50DD394097FC9A1
:10014D00400912021CE50D2437800712021CE50D33
:10015D002430FF120228E50ED39409400F7FCA12F6
:10016D00021CE50E2437FF12022880C07FCA12023E
:0B017D001CE50E2430FF12022880B1A8
:0401E8007F017E0015
:1001EC00EF1FAA0670011E4A600BE4FDEDC3940DCF
:0501FC0050EE0D80F73C
:0102010022DA
:09024000D288D2A8D2AFD2B222BA
:03000300020006F2
:10000600C0E0C083C082C0D075D000C000C002C0AE
:0700160004C005C006C0078D
:10001D007508007F467E001201EC30B2030200E845
:10002D009003E820B218D3E5829400E58394004054
:10003D000D1201E8E582158270E9158380E520B285
:10004D00030200E89001F430B218D3E5829400E584
:10005D00839400400D1201E8E582158270E9158345
:10006D0080E5E4FC750F0090003C20B218D3E582CA
:10007D009400E5839400400D1201E8E5821582702D
:10008D00E9158380E59001F430B223D3E582940025
:10009D00E583940040181201E80508E58215827089
:1000AD00021583E508D3941E40DED2A8802D740975
:1000BD002CF8C000E6C313D000F6E508C394084041
:1000CD000874092CF8E64480F6750800050FE50F55
:0B00DD00C3940840920CEC640470898E
:1000E800D007D006D005D004D002D000D0D0D0821E
:0500F800D083D0E032CE
:10018800C2A58B807F017E001201B1D2A77F057EB8
:10019800001201B1C2A7EBC454F0F5807F017E00C4
:0901A8001201B1D2A77F057E000F
:1001B100D3EF9400EE9400400F7DC77C01DCFEDD9F
:0801C100FAEF1F70EB1E80E84D
:0101C9002213
:0C021C00AB07C2A7C2A6120188C2A7222D
:0C022800AB07C2A7D2A6120188C2A72211
:1001CA007F3212021C7F2812021C7F0C12021C7F33
:0E01DA000612021C7F0112021C7F8002021C12
:03000000020234C5
:0C023400787FE4F6D8FD7581100200FD13
:00000001FF
