:0300E6000108000E
:0B00DB00EF1FAC0670011E4C70F622F7
:1000B6007D64AF051DEF600BB2957F647E00120074
:0300C600DB80EFED
:0100C9002214
:10008F0020B1107FE87E031200DB20B10375080159
:10009F0030B1FD20B0107FE87E031200DB20B003EB
:0700AF00E4F50830B0FD226A
:1000CA0012008FE508B401051200B680F3D29580BC
:0100DA00EF36
:03000000020003F8
:0C000300787FE4F6D8FD75810802004A01
:10000F000200CAE493A3F8E493A34003F68001F23D
:10001F0008DFF48029E493A3F85407240CC8C333F2
:10002F00C4540F4420C8834004F456800146F6DFC1
:10003F00E4800B01020408102040809000E6E47E6B
:10004F00019360BCA3FF543F30E509541FFEE493B6
:10005F00A360010ECF54C025E060A840B8E493A37D
:10006F00FAE493A3F8E493A3C8C582C8CAC583CAA8
:10007F00F0A3C8C582C8CAC583CADFE9DEE780BE60
:0100E9000016
:00000001FF
