:1001890011082050656368696E20536369656E6361
:10019900652000111B303132333435363738394157
:0601A900424344454600FC
:100153001201B0E4F51AF52C7408252CF8E6FF1209
:1001630001E7052CE52CC3941040ED12008FE51A2E
:1001730060F9E4F51A7FC01201DB741B2519F8E658
:06018300FF1201E780E518
:10008F0075900FE590640F60781201CEE590640FC4
:10009F00606F751A0175900FAF90EF24F560102403
:1000AF00FE601114601324077012E4F519800D75AA
:1000BF001901800875190280037519037590F012E4
:1000CF0001CEAF90EF2450601124E0601124F06056
:1000DF001124707013851919800E7404800674082A
:1000EF008002740C2519F519C3E52D648094B25064
:1000FF000DE59064F060071201CE052D80EAE4F55E
:01010F002DC2
:0101100022CC
:0C01CE007F017E267D82DDFEDEFADFF67A
:0101DA002202
:10011100C2A58B807F017E0012013AD2A77F057EA6
:100121000012013AC2A7EBC454F0F5807F017E00B2
:0901310012013AD2A77F057E00FD
:10013A00D3EF9400EE9400400F7DC77C01DCFEDD16
:08014A00FAEF1F70EB1E80E8C4
:01015200228A
:0C01DB00AB07C2A7C2A6120111C2A722E6
:0C01E700AB07C2A7D2A6120111C2A722CA
:1001B0007F321201DB7F281201DB7F0C1201DB7F13
:0E01C000061201DB7F011201DB7F800201DBF2
:03000000020003F8
:0C000300787FE4F6D8FD75812D02004ADC
:10000F00020153E493A3F8E493A34003F68001F2B3
:10001F0008DFF48029E493A3F85407240CC8C333F2
:10002F00C4540F4420C8834004F456800146F6DFC1
:10003F00E4800B0102040810204080900189E47EC7
:10004F00019360BCA3FF543F30E509541FFEE493B6
:10005F00A360010ECF54C025E060A840B8E493A37D
:10006F00FAE493A3F8E493A3C8C582C8CAC583CAA8
:10007F00F0A3C8C582C8CAC583CADFE9DEE780BE60
:0101AF00004F
:00000001FF
