:10000E001702170318031902150316031703170314
:10001E001703180319021603170318021803170300
:10002E001502180317031802100315031602150301
:10003E00160317021703180319021A031B031F03D3
:10004E001F031703180319021603170318031703C8
:10005E0018031F031F0216031703180317031803B1
:10006E00200320021F031B031F662003210320030E
:10007E001F031B031F661F031B031903190315031D
:10008E001A661A03190315031503170316661704C8
:10009E001804180319031F031B031F6620032103F3
:1000AE0020031F031B031F661F031B0319031903E2
:1000BE0015031A661A03190319031F031B031F00E6
:1000CE001A031A031A031B031B031A03190319023B
:1000DE001703151715031603170318031704180E25
:1000EE0018031704180E18661703180317031803BE
:1000FE00200320021F031B031F662003210320037E
:10010E001F031B031F661F041B0E1B03190319037A
:10011E0015031A661A03190315031503170316663A
:10012E0017041804180319031F031B031F6620036B
:10013E00210320031F031B031F661F031B03190349
:10014E00190315031A661A03190319031F031B0358
:10015E001F00180218031A03190D1503150218664D
:10016E0016021702150000000F011502160217667F
:10017E0018031702150216011502100215000F01C1
:10018E001502160217021703180319021502186634
:10019E0017031902160317031600170119021B0283
:1001AE001B701A031A01190219031A031B021A0DE6
:1001BE00190317001866180319021A02190C180DE4
:1001CE00170316011102110310030F0C1002150074
:1001DE001F011A01186619031A011B021B031B03C8
:1001EE001B0C1A0D190317001F011A0118661903AB
:1001FE001A011002100310031A0C180D1703160023
:10020E000F011502160217701803170215031503B6
:10021E0016661603160216031503100210011101BD
:10022E00116610030F0C1A02190216031603186634
:10023E0018031802170316031900000017031603FC
:10024E0017011603170316031501100315031602E3
:10025E00160D1703160315031003100E15040F01C8
:10026E0017031603170116031703160315011003C0
:10027E0015031602160D17031603150310031503A7
:10028E00160117031603170116031703160315019C
:10029E00100315031602160D17031603150310038C
:1002AE00100E15040F0117031903190119031A0370
:1002BE0019031701160316031602160D170316035C
:1002CE0015031003100D1500190319031A031F034C
:1002DE001B031B031A03170D16031603160D170126
:1002EE001703170319031A021A021003170D160328
:1002FE001601170319031903170319021F021B0313
:10030E001A031A0E1B0417021A031A031A0E1B04E1
:10031E001A03190317031603170D160317031901F2
:10032E00190319031A031F031B031B031A03170DCB
:10033E0016031603160317011703170319031A02E0
:10034E001A021003170D16031601170319031903CA
:10035E00170319031F021B031A031A0E1B0417029D
:10036E001A031A031A0E1B0417161A031A031A0E6F
:10037E001B041A031903170316030F0210031500AB
:10038E0000000106011501260137014A015D0171C8
:10039E000188019F01B801D201EE00020405070990
:0803AE000B01020408102040BD
:03000300013C00BD
:10095F00C295753EFF7540FF853E8D85408B43895F
:0C096F0011D2A9C2ABC28CC28ED2AF2242
:03000B000208F1F7
:0408F100C0E0C0D0D3
:1008F500B295853D8C853F8A053BE53BB4640D7516
:0C0905003B00053CE53CB40503753C00DC
:05091100D0D0D0E0325F
:1003B6007BFF750C00750D03750E01750F68E4FD66
:0803C6008B088A09890A8D0BDE
:1003CE00E4F528E528250BFFD3940B401A74F42F7F
:1003DE0025E02490F582E43403F58374019325E03F
:1003EE00FFE49333FE8013EF25E02490F582E4348E
:1003FE0003F583E493FE740193FFE52825E02410B2
:10040E00F8A60608A607E50D6401450C7018E52848
:10041E0025E02410F8C000E6FE08E67802CEC313ED
:10042E00CE13D8F9801EE50D6403450C701CE5282B
:10043E0025E02410F8C000E6FE08E67802C333CEAD
:10044E0033CED8F9D000A60608F60528E528640CA8
:10045E0060030203D1E4F533F534AB08AA09A90A07
:10046E00853482853383120682600D74022534F53D
:10047E0034E43533F53380E2E4F529F52AAB08AAE6
:10048E0009A90A852A82852983120682F535E52A6D
:10049E002401FFE435298F82F583120682F536ACEE
:1004AE000EAD0F7E2E7FE01206AF8E2B8F2CE52C1D
:1004BE007802CEC313CE13D8F9F5328E317802C33B
:1004CE0033CE33CED8F9FF7C007D051206AFC3E5DF
:1004DE00329FF532E5319EF531C28CD28EC3E52ABC
:1004EE009534E5299533400302067FE53575F00A0C
:1004FE008485F037E53575F00A8475F00A84ADF021
:10050E00E53575F06484FFE5379003A7932F25E05A
:10051E002410F8E6FE08E6FFE5376047BD010BEF55
:10052E007802CEC313CE13D8F9FFBD030BEF7802BA
:10053E00C333CE33CED8F9FFAB07AA06E4F9F87F62
:10054E00507EC3FDFC1208ADE47B0AFAF9F81207DF
:10055E0004C3E49FFFE49EF53D8F3FF58CE53F24F9
:10056E000CF58AE53675F00A84E5F09003AF93F545
:10057E0038E53675F00A8475F00A8485F039E5366B
:10058E0075F06484F53AE538FD7C00AE2BAF2C1285
:10059E0006AFAB07AA06E53AB4010BEAC313FEEBAE
:1005AE00132BFBEE3AFAE5396401603DE539702E06
:1005BE00E538D39404500DC3EB9532F52EEA953100
:1005CE00F52D8029EBAE027802C333CE33CED8F9A7
:1005DE00FF7C007D051206AF8E2D8F2E800FEAC395
:1005EE0013F52DEB13F52E80048A2D8B2EE5377027
:1005FE0004F52DF52EC3EB952EF530EA952DF52F3E
:10060E00E537601BD28C852E28E528D39400400F49
:10061E00308FFD853E8D85408BC28F152880EAE593
:10062E0030452F601DC28CC295853028E528D394A5
:10063E0000400F308FFD853E8D85408BC28F152873
:10064E0080EA7402252AF52AE43529F529AB08AA91
:10065E0009A90A852A82F583120682F535E52A2430
:10066E0001FFE435298F82F583120682F5360204E6
:03067E00EBC29537
:010681002256
:04093B007FF47E01C6
:10093F00E4FDFCC3ED9FEC9E5015E4FBFA0BBB00EE
:0F094F00010AEB64784A70F50DBD00010C80E4DD
:01095E002276
:1009160012095F7A00790E1203B612093B7A017941
:10092600761203B612093B7BFF7A02794A1203B8A4
:0509360012093B80DE08
:03000000020821D2
:0C082100787FE4F6D8FD7581400208687D
:10068200BB010CE58229F582E5833AF583E022502D
:1006920006E92582F8E622BBFE06E92582F8E22277
:0D06A200E58229F582E5833AF583E4932291
:1006AF00BC000BBE0029EF8DF084FFADF022E4CC2F
:1006BF00F875F008EF2FFFEE33FEEC33FCEE9DECF8
:1006CF00984005FCEE9DFE0FD5F0E9E4CEFD22ED3E
:1006DF00F8F5F0EE8420D21CFEADF075F008EF2F88
:1006EF00FFED33FD4007985006D5F0F222C398FD79
:0506FF000FD5F0EA2216
:10070400E88FF0A4CC8BF0A42CFCE98EF0A42CFC94
:100714008AF0EDA42CFCEA8EF0A4CDA8F08BF0A412
:100724002DCC3825F0FDE98FF0A42CCD35F0FCEB71
:100734008EF0A4FEA9F0EB8FF0A4CFC5F02ECD3936
:0F074400FEE43CFCEAA42DCE35F0FDE43CFC22A3
:1008AD00C2D5E830E70FB2D5E4C39BFBE49AFAE476
:1008BD0099F9E498F8EC30E717B2D51208E312076E
:1008CD008FE4C39BFBE49AFAE499F9E498F880036A
:1008DD0012078F30D50DE4C39FFFE49EFEE49DFD0E
:0408ED00E49CFC2269
:10082D00020916E493A3F8E493A34003F68001F2C2
:10083D0008DFF48029E493A3F85407240CC8C333CC
:10084D00C4540F4420C8834004F456800146F6DF9B
:10085D00E4800B0102040810204080900003E47E28
:10086D00019360BCA3FF543F30E509541FFEE49390
:10087D00A360010ECF54C025E060A840B8E493A357
:10088D00FAE493A3F8E493A3C8C582C8CAC583CA82
:10089D00F0A3C8C582C8CAC583CADFE9DEE780BE3A
:0100060000F9
:1007530075F008758200EF2FFFEE33FECD33CDCC5D
:1007630033CCC58233C5829BED9AEC99E5829840E0
:100773000CF582EE9BFEED9AFDEC99FC0FD5F0D6BD
:10078300E4CEFBE4CDFAE4CCF9A88222B800C1B9E7
:100793000059BA002DEC8BF084CFCECDFCE5F0CB25
:1007A300F97818EF2FFFEE33FEED33FDEC33FCEB5E
:1007B30033FB10D703994004EB99FB0FD8E5E4F919
:1007C300FA227818EF2FFFEE33FEED33FDEC33FC06
:1007D300C933C910D7059BE99A4007EC9BFCE99AFA
:1007E300F90FD8E0E4C9FAE4CCFB2275F010EF2F3F
:1007F300FFEE33FEED33FDCC33CCC833C810D7073F
:100803009BEC9AE899400AED9BFDEC9AFCE899F879
:0E0813000FD5F0DAE4CDFBE4CCFAE4C8F9220C
:00000001FF
