:100899003031323334353637383954656D703A0072
:1008A90048756D693A004572726F720053756363DA
:1008B90065737320202020002552480054656D700F
:1008C900486967683A0054656D704C6F773A00481B
:1008D900756D69486967683A0048756D694C6F7745
:1008E9003A006C696768743A004C696768744869CA
:1008F90067683A004C696768744C6F773A003F063D
:080909005B4F666D7D077F6FF7
:100C3900012F00012C32012E14012B50012D14011A
:050C490028880129B814
:10077700E5276432700BF5277FA4120B8B8E3C8F15
:100787003D0527AE3CAF3D7C037DE8120518749903
:100797002FF58274083EF583E493F532AE3CAF3D06
:1007A7007C037DE8120518AA04AB057D647C00AFC5
:1007B70003AE0212051874992FF58274083EF5836B
:1007C700E493F5337D647C00AF03AE02120518AAEB
:1007D70004AB057D0A7C00AF03AE021205187499BD
:1007E7002FF58274083EF583E493F5347D0A7C0087
:1007F700AF03AE0212051874992DF58274083CF503
:0508070083E493F535C8
:01080C0022C9
:060C6100AD077FE87E03F1
:0B0C6700EF1FAC0670011E4C70F6225F
:100C0A00AB07AA06EB1BAE0270011A4E60097F5AA7
:080C1A007E00120C6780ED2240
:100C2200120C61C2A6C2A5C2A78D80D2A77F0A7E7E
:070C320000120C67C2A722AB
:040BD000E50993FFA1
:100BD400120C61D2A6C2A5C2A78D80D2A77F0A7EBD
:090BE40000120C67C2A7C2A62290
:100BAF00120C637F38120C227F38120C227F3812FE
:100BBF000C227F06120C227F0C120C227F01020CDA
:010BCF002203
:100C4F00C2B27F147E00120C0AD2B27F037E000262
:020C5F000C6720
:1009CB00E4FF30B20EEFC394647480948050040F34
:1009DB000080EFEFC394647480948040037F012206
:1009EB00E4FF20B20EEFC394647480948050040F24
:1009FB000080EFC3EF94647480948040037F0122E6
:020A0B007F006A
:010A0D0022C6
:060C8700120C4F0209CB24
:100A8C00E4FF30B20EEFC394647480948050040F72
:100A9C000080EFE4FF20B20EEFC394647480948066
:100AAC0050040F0080EF7F017E00120C6730B20300
:050ABC007F01227F0014
:010AC1002212
:100BED00E4FDFBEBC3940874809480500DED25E07B
:0C0BFD00FD120A8CEF42050B80E9AF05E9
:010C090022C8
:060911008B1C8A1D891EEB
:10091700120C4F1209CBEF704FFAEAC3940574809B
:100927009480500C120BED74222AF8A6070A80EA6D
:10093700E5222523FFE433FE7C00EF2524FFEC3E70
:10094700FEEF2525FFEC3EFEEFB5261FECB5061B97
:10095700AB1FAA20A921E522120506AB1CAA1DA9D7
:0D0967001EE52412050680037F01227F009B
:010974002260
:0A0C7D001207777F647E00020C6707
:100AC200D2B77F017E00120C67C2B77F507E001240
:100AD2000C67D2B77F057E00120C67C2B77F147E07
:0D0AE20000120C67D2B77F237E00020C6764
:020AEF00AD0751
:100AF100E4FBEBC3940874809480501DC2B7ED13DE
:100B010092B7EDC313FD7F087E00120C67D2B77F49
:090B1100017E00120C670B80D973
:010B1A0022B8
:100B1B00E4FBEBC39408748094805018C2B7EDC308
:100B2B0013FDD2B730B7034305807F087E00120C4C
:060B3B00670B80DEAF0530
:010B41002291
:100A0E00120AC27FCC120AEF7F44120AEF7F647E75
:100A1E0000120C67120AC27FCC120AEF7FBE120AB6
:100A2E00EF120B1B8F3A120B1BEFC454F0FF5480C6
:0E0A3E00F53BE53A54F0C4540F2FFF533A0F26
:010A4C002287
:10057B0020B318120C6320B30F052FE52F64067000
:10058B0002F52F7F01120C2230B3FDE52F640170B1
:10059B004620B220120C6320B217052CAF2CEF3380
:1005AB0095E0FEC3EF9450EE648094804003752C6D
:1005BB005030B2FD20B120120C6320B117152CAFB7
:1005CB002CEF3395E0FED3EF9400EE6480948050D3
:1005DB0003E4F52C30B1FDE52F6402704620B22008
:1005EB00120C6320B217052EAF2EEF3395E0FEC32E
:1005FB00EF9450EE648094804003752E5030B2FD22
:10060B0020B120120C6320B117152EAF2EEF3395AE
:10061B00E0FED3EF9400EE648094805003E4F52E5B
:10062B0030B1FDE52F6403704620B220120C63201D
:10063B00B217052BAF2BEF3395E0FEC3EF9450EEC3
:10064B00648094804003752B5030B2FD20B1201292
:10065B000C6320B117152BAF2BEF3395E0FED3EFC7
:10066B009400EE648094805003E4F52B30B1FDE5EB
:10067B002F6404704620B220120C6320B217052D94
:10068B00AF2DEF3395E0FEC3EF9450EE6480948072
:10069B004003752D5030B2FD20B120120C6320B1F8
:1006AB0017152DAF2DEF3395E0FED3EF9400EE64CD
:0C06BB008094805003E4F52D30B1FD2246
:100A4D00E4FBEBC39405748094805013EB2480FF7A
:100A5D00120C22EB9008A393FF120BD40B80E3E44E
:100A6D00FBEBC39405748094805013EB24C0FF12EC
:0E0A7D000C22EB9008A993FF120BD40B80E320
:010A8B002248
:10000300120A0E8F39751F007520007521377B008A
:100013007A007938120911E53875F00A842430F52D
:100023000AE53875F00A84E5F02430F50BE53775F9
:10003300F00A842430F50CE53775F00A84E5F024E2
:1000430030F50DAC3AE412042FE4FBFA7980783DE5
:1000530012031F8F198E188D178C167F007E407D1B
:100063001C7C46AB19AA18A917A81612031F120461
:10007300638E1A8F1BE52C75F00A1204E42430F505
:100083000EE52C75F00A1204E4AFF0EF2430F50FFF
:10009300E52E75F00A1204E42430F510E52E75F010
:1000A3000A1204E4AFF0EF2430F511E52B75F00AE2
:1000B3001204E42430F512E52B75F00A1204E4AFC0
:1000C300F0EF2430F513E52D75F00A1204E4243023
:1000D300F514E52D75F00A1204E4AFF0EF2430F5C2
:1000E300157FA4120B8B8E308F317C037DE81205B4
:1000F3001874992FF58274083EF583E493F532AEB4
:1001030030AF317C037DE8120518AA04AB057D648A
:100113007C00AF03AE0212051874992FF5827408A0
:100123003EF583E493F5337D647C00AF03AE0212A6
:100133000518AA04AB057D0A7C00AF03AE021205C5
:100143001874992FF58274083EF583E493F5347D92
:100153000A7C00AF03AE0212051874992DF5827460
:10016300083CF583E493F535E52F600302020F1293
:100173000A4D7F85120C22E53975F06484E5F0752C
:10018300F00A8490089993FF120BD4E53975F06453
:1001930084E5F075F00A84E5F093FF120BD47F2E0B
:1001A300120BD4AE1AAF1B7C037DE81205187499A9
:1001B3002FF58274083EF583E493FF120BD47FDF9F
:1001C300120BD47F43120BD4E4F509C3E50994025F
:1001D300748094805016E50924C5FF120C22740C18
:1001E3002509F8E6FF120BD4050980DFE4F509C3FE
:1001F300E5099403748094805012E50924C7FF1223
:100203000C229008C1120BD0050980E3E52F64018D
:1002130070277F80120C22E4F509C3E50994097461
:10022300809480500A9008C5120BD0050980EBAF6B
:100233000E120BD4AF0F120BD4E52F6402702B7F79
:1002430080120C22E4F509C3E509940874809480B4
:10025300500EE5099008CF93FF120BD4050980E7F0
:10026300AF10120BD4AF11120BD4E52F6403702B14
:100273007F80120C22E4F509C3E509940974809484
:1002830080500EE5099008D893FF120BD40509801E
:10029300E7AF12120BD4AF13120BD4E52F64047023
:1002A3002B7F80120C22E4F509C3E50994087480BE
:1002B3009480500EE5099008E293FF120BD40509D0
:1002C30080E7AF14120BD4AF15120BD4E52F6405DE
:1002D30070497F80120C22E4F509C3E50994067482
:1002E300809480500EE5099008EB93FF120BD40520
:1002F3000980E77F88120C22AF32120BD4AF33127E
:100303000BD4AF34120BD4AF35120BD47F20120BA6
:0B031300D47F6C120BD47F78120BD447
:01031E0022BC
:1006C700AF2CEF3395E0FEAD397C00C3ED9FEE64B0
:1006D70080F87480985014AF2BEF3395E0FEC3E594
:1006E700379FEE6480F87480984004D2B6C2B7AFE3
:1006F7002EEF3395E0FED3ED9FEE6480F8EC648037
:10070700984014AF2DEF3395E0FED3E5379FEE64A5
:1007170080F87480985004C2B6D2B7AF2EEF3395E5
:10072700E0FEAD39D3ED9FEE6480F8748098403FCA
:10073700AF2CEF3395E0FEC3ED9FEE6480F8748035
:1007470098502CAF2DEF3395E0FEAD37D3ED9FEEEC
:100757006480F87480984017AF2BEF3395E0FEC3A1
:10076700ED9FEE6480F87480985004C2B6C2B72239
:10097500E4F508C2B6C2B7120BAF120C87EF7023AD
:10098500F508C3E50894057480948050EDE50824C6
:1009950080FF120C22E5089008AF93FF120BD405D7
:1009A5000880DF7F01120C22120A4DE4F5080508C4
:1009B50012057B1206C7E508640F7005F5081200DD
:0609C50003120C6380E840
:0B0C7200C2B6D2B5D2B4D2B6C2B522D1
:100B4200C2B6E4FEEEC39408748094805016EFC4DB
:100B5200131313540124FF92B4EF25E0FFC2B6D25F
:040B6200B60E80E06B
:010B6600226C
:100B6700E4FFFEC2B6FDFCEF25E0FFEE33FED2B692
:100B7700C2B6A2B7E43342070DBD00010CED640C09
:030B87004C70E4CB
:010B8A002248
:100B8B00C2B6C2B5120B427F06EFD39400748094A9
:100B9B008040031F80F3D2B60000C2B60000120BD8
:030BAB0067D2B559
:010BAE002224
:10031F00EC4D6011E8497017ED33EC3304600DE4D8
:10032F00FCFFFEFD22E933E8330470F80204CF121C
:10033F00049A58046009E4CC24815006285009021D
:10034F0004D92840030204D6C0E0EB4A7044B980B8
:10035F0006D0E0FB0204C5EF4E701CBD8008EBFF1A
:10036F00EAFEE9FD80EBE98DF0A4FEE5F00204085A
:10037F00E9CDF9EAFEEBFFEF89F0A4FCE5F0CE89B9
:10038F00F0A42EFFE435F0CD89F0A42DFEE435F076
:10039F008067EF4E7005BD80D780C3EF8BF0A4ACA4
:1003AF00F0EE8BF0A42CFCE435F0F8EF8AF0A42CDF
:1003BF00E5F038FCE433CB8DF0A42CFCE5F03BF8F2
:1003CF00EE8AF0A42CFCE5F038F8E433CF89F0A4E2
:1003DF002CFCE5F038CF3400CE89F0A42FFFE5F0E8
:1003EF003EFEE433C98DF0A42EFEE5F039CD8AF040
:1003FF00A42FFFE5F03EFEE43DFD33D0E0FB5007B8
:10040F000BBB000F0204D9EC2CFCEF33FFEE33FED5
:06041F00ED33FD0204B103
:1004250075F020800E75F010800575F0087D007E52
:10043500007F003392D530D50312056DEC334010A3
:10044500EF33FFEE33FEED33FDEC33FCD5F0ED225B
:0E045500E5F0247EA2D513CC92E7CDCEFF2297
:10046300EDD2E7CD33EC3392D524814006E4FFFE91
:10047300FDFC22FCE4CFCECDCC24E0501174FF80F0
:10048300EDC3CC13CCCD13CDCE13CECF13CF04708D
:07049300F030D5DE02056D1B
:10049A00E9D2E7C933E833F892D5EDD2E7CD33ECA8
:0704AA0033FC5002B2D52221
:1004B100EC30E7100FBF000C0EBE00080DBD0004AC
:1004C1000BEB6014A2D5EB13FCED92E7FD2274FF58
:1004D100FCFDFEFF22E480F8A2D574FF13FC7D80B1
:0304E100E480EFC5
:0300000002080DE6
:0C080D00787FE4F6D8FD75813D020854A8
:1004E400C2D530F707B2D563F0FF05F030E70CB2A0
:1004F400D5F4048463F0FF05F080018430D502F460
:020504000422CF
:10050600BB010689828A83F0225002F722BBFE01D4
:02051600F322CE
:10051800BC000BBE0029EF8DF084FFADF022E4CCC7
:10052800F875F008EF2FFFEE33FEEC33FCEE9DEC90
:10053800984005FCEE9DFE0FD5F0E9E4CEFD22EDD6
:10054800F8F5F0EE8420D21CFEADF075F008EF2F20
:10055800FFED33FD4007985006D5F0F222C398FD11
:050568000FD5F0EA22AE
:0E056D00C3E49FFFE49EFEE49DFDE49CFC229F
:10081900020975E493A3F8E493A34003F68001F277
:1008290008DFF48029E493A3F85407240CC8C333E0
:10083900C4540F4420C8834004F456800146F6DFAF
:10084900E4800B0102040810204080900C39E47EFA
:10085900019360BCA3FF543F30E509541FFEE493A4
:10086900A360010ECF54C025E060A840B8E493A36B
:10087900FAE493A3F8E493A3C8C582C8CAC583CA96
:10088900F0A3C8C582C8CAC583CADFE9DEE780BE4E
:010C4E0000A5
:00000001FF
