:100003007FBFDFEFF7FBFDFE00003E4141413E00B5
:1000130000000000217F010000002745454539000D
:10002300000022494949360000000C14247F0400D3
:100033000000725151514E0000003E4949492600CB
:1000430000004040404F70000000364949493600E7
:100053000000324949493E0000007F484830000013
:1000630000007F484C73000000007F4949490000AD
:1000730000003E414162000000007F08087F00004D
:10008300000000FFFF000000007F1008047F000055
:080093007C4848FF48487C004E
:10011B00E4FDFCC3ED9FEC9E5015E4FBFA0BBB001A
:0F012B00010AEB64794A70F50DBD00010C80E408
:01013A0022A2
:1000F500C2B6C2B5E4FEEFC4131313540124FF9234
:10010500B4EF25E0FFD2B60000C2B60EBE08E7D2B6
:05011500B50000C2B5B9
:01011A0022C2
:10009B00E4F509F50AE4F9E4FF1200F5E990000331
:1000AB0093F580E50875F008A4240BF582E4340081
:1000BB00F583E58229F582E43583F583E493FF121A
:1000CB0000F57F027E0012011B09B908CA050AE57B
:1000DB000A70020509C39432E509940040B705087C
:0A00EB00E508B412ABE4F50880A6A6
:0300000002013BBF
:0C013B00787FE4F6D8FD75810A02009B75
:00000001FF
