:10031000303132333435363738394741533A005368
:0403200045543A0006
:06034000011000010F1482
:06032400AD077FE87E0337
:0B032A00EF1FAC0670011E4C70F622A5
:1002E500120324C2A6C2A5C2A78D80D2A77F0A7E0B
:0702F5000012032AC2A72238
:1002B300120324D2A6C2A5C2A78D80D2A77F0A7E2D
:0902C3000012032AC2A7C2A62200
:100276001203267F381202E57F381202E57F381214
:1002860002E57F061202E57F0C1202E57F010202FB
:01029600E582
:1001880020B31912032620B3100510E4F50EE5106C
:10019800B40206E4F510750E0130B3FDE5106401F4
:1001A800703420A11712032620A10E050FC3E50FF6
:1001B800648094E44003750F6430A1FD20A21712F7
:1001C800032620A20E150FD3E50F648094805003F8
:0701D800E4F50F30A2FD2247
:1001DF00E4FBEB2480FF1202E5EB90031A93FF126E
:1001EF0002B30BBB04ECE4FBEB24C0FF1202E5EB04
:0C01FF0090031F93FF1202B30BBB04EC33
:01020B0022D0
:10008F00E51175F064842430F508E51175F064848A
:10009F00AFF0EF75F00A842430F509EF75F00A849C
:1000AF00E5F02430F50AE50F75F0641201112430E4
:1000BF00F50BE50F75F064120111AFF0EF75F00A53
:1000CF001201112430F50CEF75F00A120111AFF087
:1000DF00EF2430F50DE4FBEB2484FF1202E57408E6
:1000EF002BF8E6FF1202B30BBB03ECE4FBEB24C4CB
:1000FF00FF1202E5740B2BF8E6FF1202B30BBB03E2
:01010F00EC03
:0101100022CC
:1002FC007D64AF051DEF600BB2B77F647E00120307
:03030C002A80EF55
:01030F0022CB
:10023000AF0FEF3395E0FEC3E5119FEE6480F874D5
:100240008098400AE50EB40105C2B60202FCD2B69F
:03025000D2B72200
:10025300D2B6D2B71202761201DF12018812008FD2
:100263001202307F941202CC7C007D281201338F5E
:030273001180E710
:0B033500C290D291D292D290C29122CD
:10029700C290E4FEEFC4131313540124FF9292EFAC
:0B02A70025E0FFC290D2900EBE08E9D7
:0102B2002229
:10020C00E4FFFEC290FDFCEF25E0FFEE33FED29042
:10021C00C290A293E43342070DBD00010CED640CB7
:03022C004C70E42F
:01022F0022AC
:1002CC00C290C2911202977F06DFFED2900000C24C
:0802DC0090000012020CD29107
:0102E40022F7
:03000000020003F8
:0C000300787FE4F6D8FD75811102004AF8
:10011100C2D530F707B2D563F0FF05F030E70CB276
:10012100D5F4048463F0FF05F080018430D502F436
:020131000422A6
:10013300BC000BBE0029EF8DF084FFADF022E4CCB0
:10014300F875F008EF2FFFEE33FEEC33FCEE9DEC79
:10015300984005FCEE9DFE0FD5F0E9E4CEFD22EDBF
:10016300F8F5F0EE8420D21CFEADF075F008EF2F09
:10017300FFED33FD4007985006D5F0F222C398FDFA
:050183000FD5F0EA2297
:10000F00020253E493A3F8E493A34003F68001F2B2
:10001F0008DFF48029E493A3F85407240CC8C333F2
:10002F00C4540F4420C8834004F456800146F6DFC1
:10003F00E4800B0102040810204080900340E47E0E
:10004F00019360BCA3FF543F30E509541FFEE493B6
:10005F00A360010ECF54C025E060A840B8E493A37D
:10006F00FAE493A3F8E493A3C8C582C8CAC583CAA8
:10007F00F0A3C8C582C8CAC583CADFE9DEE780BE60
:0103460000B6
:00000001FF
