:100006001203B7120346120323E5107006120364A7
:100016000200D420B12612038820B10C050FE50F8B
:10002600C394074003E4F50FE511C39432500A2048
:10003600B107120388051180EFE4F51130B0030211
:1000460000D412038820B0727408250FF8067408CD
:10005600250FF8E6540FD394094004740626F67467
:1000660008250FF8E6C394604008E50F9402500295
:10007600E4F67408250FF8E6C394244007E50FB4A8
:100086000202E4F67408250FF8E6C394324007E549
:100096000FB40302E4F67408250FF8E6C394134080
:1000A60007E50FB40402E4F67408250FF8E6C394D6
:1000B600074007E50FB405027601E511C3943250F7
:1000C6000A20B007120388051180EFE4F51112002B
:0400D600DA02000F3B
:1000DA007FC0120395E50AC4540F2430FF1203A10E
:1000EA00E50A540F2430FF1203A17F2D1203A1E564
:1000FA0009C4540F2430FF1203A1E509540F243018
:10010A00FF1203A17F2D1203A1E508C4540F243066
:10011A00FF1203A1E508540F2430FF1203A17F80C8
:10012A001203957F321203A17F301203A1E50EC498
:10013A00540F2430FF1203A1E50E540F2430FF128E
:10014A0003A17F2D1203A1E50CC4540F2430FF1222
:10015A0003A1E50C540F2430FF1203A17F2D1203D3
:10016A00A1E50BC4540F2430FF1203A1E50B540F71
:10017A002430FF1203A17F8D120395E50D54072445
:05018A0030FF0203A19B
:0703B700D288D2A8D2AF22C8
:0300030002026591
:10026500C0E0C0F0C083C082C0D075D000C000C05F
:1002750001C002C003C004C005C006C00712038840
:1002850020B2096310FF750F00120323D007D006B3
:10029500D005D004D003D002D001D000D0D0D08278
:0702A500D083D0F0D0E0325D
:0C0388007F017E267D82DDFEDEFADFF6BE
:010394002246
:1002AC00C2A58B807F017E001202D5D2A77F057E6E
:1002BC00001202D5C2A7EBC454F0F5807F017E007A
:0902CC001202D5D2A77F057E00C5
:1002D500D3EF9400EE9400400F7DC77C01DCFEDD7A
:0802E500FAEF1F70EB1E80E828
:0102ED0022EE
:0C039500AB07C2A7C2A61202ACC2A7228E
:0C03A100AB07C2A7D2A61202ACC2A72272
:100346007F321203957F281203957F0C1203957F47
:0E035600061203957F011203957F8002039526
:0E037A0081838587898B8D80828486888A8C1A
:0903AD000708000012010102130F
:1002EE00C2B500C2B600D2B500E4FEEF1392B4EF71
:1002FE00C313FFD2B600C2B6000EBE08EEE4FEED8A
:10030E001392B4EDC313FDD2B600C2B6000EBE08F2
:04031E00EEC2B50076
:0103220022B8
:10021B00C2B500C2B600D2B500E4FDEF1392B4EF45
:10022B00C313FFD2B600C2B6000DBD08EE00E4FD4D
:10023B00A2B4E433FFC43333335480FCEEC3134C0A
:10024B00FED2B600C2B6000DBD08E5C2B500D2B6EF
:09025B0000C2B400D2B400AF06E9
:010264002277
:10032300E4FD7F8E1202EEE4FCEC90038193FF74F4
:10033300082CF8E6FD1202EE0CBC07ED7D807F8EE3
:030343000202EEC5
:10036400E4FBEB90037A93FF12021B74082BF8A6AC
:05037400070BBB07EDC3
:010379002261
:0300000002018F6B
:0C018F00787FE4F6D8FD7581110201D6DE
:10019B00020006E493A3F8E493A34003F68001F274
:1001AB0008DFF48029E493A3F85407240CC8C33365
:1001BB00C4540F4420C8834004F456800146F6DF34
:1001CB00E4800B01020408102040809003ADE47E14
:1001DB00019360BCA3FF543F30E509541FFEE49329
:1001EB00A360010ECF54C025E060A840B8E493A3F0
:1001FB00FAE493A3F8E493A3C8C582C8CAC583CA1B
:10020B00F0A3C8C582C8CAC583CADFE9DEE780BED2
:0103B6000046
:00000001FF
