:0A01A8003F065B4F666D7D077F6F19
:0B019200EF1FAC0670011E4C70F6223F
:10000300E508B4320CE4F5087FA412016D8E0D8F60
:100013000E0508AE0DAF0E7C037DE812009974A89F
:100023002FF58274013EF583E493F509AE0DAF0E0F
:100033007C037DE8120099AA04AB057D647C00AFC4
:1000430003AE0212009974A82FF58274013EF58362
:10005300E493F50A7D647C00AF03AE02120099AA13
:1000630004AB057D0A7C00AF03AE0212009974A8AD
:100073002FF58274013EF583E493F50B7D0A7C0032
:10008300AF03AE0212009974A82DF58274013CF5FA
:0500930083E493F50C6D
:010098002245
:1000EE00E4FDED14600E14601314601424037016F6
:1000FE00C2A28002D2A2C2A3C2A4800AC2A280025D
:10010E00D2A2D2A3C2A4C374039D2409F8E6F5803B
:0E011E007F647E00120192E4F5800DBD04C4E2
:01012C0022B0
:0801B2001200031200EE80F8B8
:0B019D00C2B6D2B5D2B4D2B6C2B522B1
:10015100C2B6E4FEEFC4131313540124FF92B4EFAB
:0B01610025E0FFC2B6D2B60EBE08E9D2
:01016C002270
:10012D00E4FFFEC2B6FDFCEF25E0FFEE33FED2B6D6
:10013D00C2B6A2B7E43342070DBD00010CED640C4D
:03014D004C70E40F
:01015000228C
:10016D00C2B6C2B51201517F06DFFED2B60000C283
:08017D00B6000012012DD2B5FD
:010185002257
:0300000002018674
:0C018600787FE4F6D8FD75810E0201B20E
:10009900BC000BBE0029EF8DF084FFADF022E4CC4B
:1000A900F875F008EF2FFFEE33FEEC33FCEE9DEC14
:1000B900984005FCEE9DFE0FD5F0E9E4CEFD22ED5A
:1000C900F8F5F0EE8420D21CFEADF075F008EF2FA4
:1000D900FFED33FD4007985006D5F0F222C398FD95
:0500E9000FD5F0EA2232
:00000001FF
