:1000C90010087065726368696E2064657369676E8C
:1000D90065641B1877656C636F6D6520746F207498
:0F00E900686520776F726C64206F66206D637599
:0C013200C2A5C2A78D80D2A77F0A7E0064
:0B013E00EF1FAC0670011E4C70F62293
:10014900AD077FE87E0312013EC2A6120132C2A7A3
:010159002283
:0601190074082BF8E6FF5C
:10011F00AD077FE87E0312013ED2A6120132C2A7BD
:03012F00C2A62243
:1000F9007FE87E0312013E7F381201497F381201E1
:10010900497F381201497F0C1201497F01020149D7
:10008F007F80120149E4FB1201190BBB10F97FC0ED
:10009F00120149E4FB741812011B0BBB1BF77F07FE
:1000AF001201497F80120149E4FB1201197F307E52
:0A00BF007512013E0BBB10F280E940
:08015A001200F912008F80FB76
:03000000020003F8
:0C000300787FE4F6D8FD75813202004AD7
:10000F0002015AE493A3F8E493A34003F68001F2AC
:10001F0008DFF48029E493A3F85407240CC8C333F2
:10002F00C4540F4420C8834004F456800146F6DFC1
:10003F00E4800B01020408102040809000C9E47E88
:10004F00019360BCA3FF543F30E509541FFEE493B6
:10005F00A360010ECF54C025E060A840B8E493A37D
:10006F00FAE493A3F8E493A3C8C582C8CAC583CAA8
:10007F00F0A3C8C582C8CAC583CADFE9DEE780BE60
:0100F8000007
:00000001FF
