:100144003F065B4F666D7D077F6F777C395E797103
:010154007634
:040155007F017E00A8
:0B015900EF1FAC0670011E4C70F62278
:1000EB00E4FDED14600B14601024027012C2A280A8
:1000FB0002D2A2C2A3C2A48006C2A2D2A3C2A4C32C
:10010B0074029D240FF8E6F5807F647E001201597E
:07011B00E4F5800DBD03CBEC
:0101220022BA
:09017000D288D2A8D2AFD2B2228B
:10012300120170E50BC4540F90014493F50FE50BD6
:10013300540F93F510900154E493F5111200EB80E2
:01014300E2D9
:03000300020006F2
:10000600C0E0C0D075D000C000C002C003C004C0AC
:0500160005C006C00753
:10001B007508007FBC7E0212015930B2030200D872
:10002B007BE87A0320B213D3EB9400EA9400400AE6
:10003B00120155EB1B70ED1A80EA20B2030200D8B7
:10004B007A017BF430B213D3EB9400EA9400400AAC
:10005B00120155EB1B70ED1A80EAE4FD7517007A5F
:10006B00007B3C20B213D3EB9400EA9400400A12BD
:10007B000155EB1B70ED1A80EA7A017BF430B2204C
:10008B00D3EB9400EA940040177F0A7E00120159CB
:10009B000508EB1B70011AE508D3941E40DF802D79
:1000AB0074092DF8C000E6C313D000F6E508C3941D
:1000BB0008400874092DF8E64480F675080005170A
:0D00CB00E517C3940840980DED6404708F94
:1000D800D007D006D005D004D003D002D000D0D0AD
:0300E800D0E03233
:0300000002016496
:0C016400787FE4F6D8FD758117020123B6
:00000001FF
