:1000ED0011082050656368696E20536369656E63FE
:0300FD006520007B
:1000B9001200D4E4F51974082519F8E6FF12010BAA
:0B00C9000519E519C3941040ED80FEFE
:10008F00C2A58F807F017E001200A0D2A77F057EC0
:01009F000060
:1000A000D3EF9400EE9400400F7DC77C01DCFEDDB1
:0800B000FAEF1F70EB1E80E85F
:0100B8002225
:0A010100C2A7C2A612008FC2A722F7
:0A010B00C2A7D2A612008FC2A722DD
:1000D4007F381201017F0C1201017F061201017F9A
:0900E400011201017F80020101FB
:03000000020003F8
:0C000300787FE4F6D8FD75811902004AF0
:10000F000200B9E493A3F8E493A34003F68001F24E
:10001F0008DFF48029E493A3F85407240CC8C333F2
:10002F00C4540F4420C8834004F456800146F6DFC1
:10003F00E4800B01020408102040809000EDE47E64
:10004F00019360BCA3FF543F30E509541FFEE493B6
:10005F00A360010ECF54C025E060A840B8E493A37D
:10006F00FAE493A3F8E493A3C8C582C8CAC583CAA8
:10007F00F0A3C8C582C8CAC583CADFE9DEE780BE60
:0101000000FE
:00000001FF
